00DBTCER9999BVMF    89992017051120170511                                                                                                                        
01ABCB4               ABC BRASIL                    00000000060000004205100000000000080822022000031700003840000430000041100004330000435                         
01ABEV3               AMBEV S/A                     00000002090000534915900000000010238290326000000600000110000060000000800000140000350                         
99DBTCER9999BVMF    9999201705114                                                                                                                               